:100000000C9434000C9451000C9451000C94510049
:100010000C9451000C9451000C9451000C9451001C
:100020000C9451000C9451000C9451000C9451000C
:100030000C9451000C9451000C940B010C94510041
:100040000C9451000C9451000C9481010C945100BB
:100050000C9451000C9451000C9451000C945100DC
:100060000C9451000C94510011241FBECFEFD8E026
:10007000DEBFCDBF11E0A0E0B1E0E6E5FDE002C0EB
:1000800005900D92AE32B107D9F723E0AEE2B1E0B0
:1000900001C01D92A833B207E1F70E9400010C9441
:1000A000A9060C940000249A2C9A2FEF8BE792E972
:1000B000215080409040E1F700C00000089548E0E2
:1000C00050E080E00AC095E09A95F1F700002F5FBC
:1000D0003F4F283C310519F426C020E030E01C9B3E
:1000E000F2CF283C3105ECF490EA9A95F1F7880FAD
:1000F0001C9B0CC081600AC095E09A95F1F7000046
:100100002F5F3F4F283C310519F40DC020E030E04F
:100110001C99F2CF283C310524F441505109E9F6ED
:1001200008958FEF08958FEF0895249A2C9A0895DB
:10013000249808951C99FECF1C9BFECF1C99FECFDE
:1001400008952C982FEF80EE90E021508040904051
:10015000E1F700C000002C9A2AE12A95F1F700C0CF
:1001600008950E946B0160E875E280E090E00E94D3
:10017000E1010E9453007894259A2D9808950F93D9
:100180001F93CF93DF930E94A1000E9498000E94CA
:100190009A000E945F00182F0E945F00082F0E94A3
:1001A0005F00C82F0E945F00D82F0E945F000E944E
:1001B00095002091300190912F0180912E011F9286
:1001C0000F931F921F931F92DF931F92CF931F9243
:1001D0002F931F929F931F928F9387E091E09F939D
:1001E0008F930E9487028DB79EB740960FB6F89402
:1001F0009EBF0FBE8DBFDF91CF911F910F910895CC
:100200000E94B100809106018823E1F3109206015B
:100210000E94BF00F7CF1F920F920FB60F921124CA
:100220002F938F939F938091330190913401019686
:100230009093340180933301809131019091320188
:100240000196909332018093310180913301909116
:1002500034018C3D954014F02D9A01C02D98809169
:10026000330190913401883B9B403CF01092340163
:100270001092330181E080930601809131019091C9
:100280003201883E9340FCF0809130018F5F809373
:1002900030011092320110923101809130018C3383
:1002A00090F080912F018F5F80932F011092300189
:1002B00080912F018C3338F080912E018F5F8093D5
:1002C0002E0110922F019F918F912F910F900FBEB1
:1002D0000F901F90189584B5826084BD85B58360AA
:1002E00085BD89EF87BDEEE6F0E080818260808386
:1002F0000895E0ECF0E0908195FFFDCF8093C6007B
:1003000008951F920F920FB60F9211242F938F937F
:100310009F93EF93FF938091C60080933701809164
:100320003601823308F040C090912C039B30E0F5F9
:10033000909137019D3021F0909137019A3019F555
:100340009091350122E3929FF0011124E85CFE4F69
:10035000E80FF11D10821092360180912C038F5FFF
:1003600080932C039F5F8DEC989F812D112486959F
:1003700086958695880F282F220F220F820F981BB3
:100380009093350111C0E091350191E0980F909361
:1003900036019091370122E3E29FF0011124E85CDD
:1003A000FE4FE80FF11D908381E080932D03FF91B4
:1003B000EF919F918F912F910F900FBE0F901F90F3
:1003C0001895CF92DF92EF92FF926B017C0160E073
:1003D00070E089E791E00E943C02E1ECF0E080816E
:1003E00088698083E2ECF0E080818660808360E44D
:1003F00072E48FE090E0A70196010E941A02DA01F0
:10040000C9010197A109B109892F9A2FAB2FBB27E9
:100410008093C50021502093C4008091C6008FE9CD
:100420009FE00197F1F700C00000FF90EF90DF9090
:10043000CF900895A1E21A2EAA1BBB1BFD010DC08F
:10044000AA1FBB1FEE1FFF1FA217B307E407F50784
:1004500020F0A21BB30BE40BF50B661F771F881F60
:10046000991F1A9469F760957095809590959B01F6
:10047000AC01BD01CF0108950F931F93CF93DF937C
:10048000009731F46115710519F480E090E03AC0ED
:100490008B01EC016EE070E081E090E00E947E0450
:1004A000FC01892B91F380E883830115110571F01C
:1004B0001387028781E8838380912E0390912F0315
:1004C000892B21F4F0932F03E0932E032097C9F09A
:1004D000D187C0878381826083838091300390912C
:1004E0003103892B71F4F0933103E0933003809151
:1004F000320390913303892B21F4F0933303E0937B
:100500003203CF01DF91CF911F910F910895A0E0A9
:10051000B0E0EDE8F2E00C948206AE014B5F5F4F75
:10052000FA0161917191AF01809130039091310393
:100530000E949D02E2E00C949E06ABE0B0E0E3EA8C
:10054000F2E00C9472066C017B018A01FC011782B7
:100550001682838181FFCCC1CE0101963C01F60158
:100560009381F70193FD859193FF81917F0188230A
:1005700009F4BAC1853239F493FD859193FF8191D5
:100580007F01853229F4B60190E00E94D805E7CFBB
:10059000912C212C312CFFE1F315D8F08B3279F01E
:1005A00038F4803279F08332A1F4232D20611DC00C
:1005B0008D3261F0803369F4232D216016C0832DC4
:1005C0008260382EE32DE4603E2E2AC0F32DF860C1
:1005D0001DC037FC2DC020ED280F2A3040F08E3290
:1005E000B9F436FC81C1232D2064322E19C036FEA9
:1005F00006C08AE0989E200D1124922E11C0EAE0D8
:100600002E9E200D1124222EF32DF0623F2E08C0C5
:100610008C3621F4832D8068382E02C0883641F450
:10062000F70193FD859193FF81917F018111B3CFF4
:10063000982F9F7D9554933028F40C5F1F4F9FE3B4
:1006400099830DC0833631F0833771F0833509F01B
:1006500059C021C0F801808189830E5F1F4F882413
:100660008394912C530113C02801F2E04F0E511CCA
:10067000F801A080B18036FE03C0692D70E002C091
:100680006FEF7FEFC5010E94CD054C018201F32D74
:10069000FF773F2E16C0280122E0420E511CF801C0
:1006A000A080B18036FE03C0692D70E002C06FEFFC
:1006B0007FEFC5010E94BB054C01F32DF0683F2E72
:1006C000820133FC1BC0822D90E088169906B0F49D
:1006D000B60180E290E00E94D8052A94F4CFF5019B
:1006E00037FC859137FE81915F01B60190E00E9451
:1006F000D80521102A9421E0821A910881149104CE
:1007000071F7E8C0843611F0893641F5F80137FEFB
:1007100007C060817181828193810C5F1F4F08C087
:1007200060817181072E000C880B990B0E5F1F4FA3
:10073000F32DFF763F2E97FF09C090958095709519
:1007400061957F4F8F4F9F4FF0683F2E2AE030E03A
:10075000A3010E941406882E861845C0853731F4FF
:10076000232D2F7EB22E2AE030E025C0932D997FD5
:10077000B92E8F36C1F018F4883579F0B5C08037BE
:1007800019F0883721F0B0C0E92FE061BE2EB4FE29
:100790000DC0FB2DF460BF2E09C034FE0AC0292F06
:1007A0002660B22E06C028E030E005C020E130E02F
:1007B00002C020E132E0F801B7FE07C0608171811C
:1007C000828193810C5F1F4F06C06081718180E040
:1007D00090E00E5F1F4FA3010E941406882E86181A
:1007E000FB2DFF773F2E36FE0DC0232D2E7FA22E30
:1007F000891458F434FE0BC032FC09C0832D8E7E60
:10080000A82E05C0B82CA32C03C0B82C01C0B92C4D
:10081000A4FE0FC0FE01E80DF11D8081803321F49C
:100820009A2D997EA92E09C0A2FE06C0B394B39456
:1008300004C08A2D867809F0B394A3FC11C0A0FEF1
:1008400006C0B21488F4280C922C9B180EC0B21467
:1008500060F4B60180E290E00E94D805B394F7CF2F
:10086000B21418F42B1802C0982C212CA4FE10C02E
:10087000B60180E390E00E94D805A2FE17C0A1FC5B
:1008800003C088E790E002C088E590E0B6010CC0A4
:100890008A2D867859F0A1FE02C08BE201C080E269
:1008A000A7FC8DE2B60190E00E94D805891438F4C7
:1008B000B60180E390E00E94D8059A94F7CF8A941D
:1008C000F301E80DF11D8081B60190E00E94D8058A
:1008D0008110F5CF222009F442CEB60180E290E0EB
:1008E0000E94D8052A94F6CFF6018681978102C02E
:1008F0008FEF9FEF2B96E2E10C948E060F931F93E0
:10090000CF93DF93869F8001879F100D969F100DD8
:100910001124C8010E949A04EC01009729F0A80153
:1009200060E070E00E94C605CE01DF91CF911F917B
:100930000F9108950F931F93CF93DF93823091050A
:1009400010F482E090E0E0913603F091370320E06C
:1009500030E0A0E0B0E0309719F140815181028190
:10096000138148175907C8F08417950769F4109741
:1009700031F012960C93129713961C9327C0009394
:1009800036031093370322C02115310519F04217A1
:10099000530718F49A01BD01EF01DF01F801DBCF25
:1009A00021153105F9F0281B390B2430310580F46D
:1009B0008A819B816115710521F0FB0193838283FC
:1009C00004C09093370380933603FE01329644C0EF
:1009D000FE01E20FF31F8193919322503109398375
:1009E00028833AC02091340330913503232B41F4FE
:1009F0002091020130910301309335032093340399
:100A000020910001309101012115310541F42DB7EC
:100A10003EB74091040150910501241B350BE09134
:100A20003403F0913503E217F307A0F42E1B3F0BBC
:100A30002817390778F0AC014E5F5F4F2417350750
:100A400048F04E0F5F1F509335034093340381935A
:100A5000919302C0E0E0F0E0CF01DF91CF911F91D0
:100A60000F910895CF93DF93009709F481C0FC01A3
:100A7000329713821282A0913603B09137031097F8
:100A800081F420813181820F931F209134033091B2
:100A900035032817390751F5F0933503E0933403F4
:100AA00067C0ED0120E030E0CE17DF0740F44A8157
:100AB0005B819E0141155105F1F0EA01F5CFD38329
:100AC000C28340815181840F951FC817D90759F4FB
:100AD00088819981840F951F0296918380838A81F2
:100AE0009B81938382832115310529F4F093370389
:100AF000E09336033DC0E901FB83EA8349915991B4
:100B0000C40FD51FEC17FD0761F480819181840F1C
:100B1000951F0296E90199838883828193819B8343
:100B20008A83E0E0F0E012968D919C9113970097F4
:100B300019F0FD01DC01F7CF8D919C9111979D017A
:100B40002E5F3F4F820F931F209134033091350366
:100B50002817390769F4309729F410923703109257
:100B6000360302C013821282B0933503A09334037C
:100B7000DF91CF910895FC01059061507040011004
:100B8000D8F7809590958E0F9F1F0895DC0101C0C6
:100B90006D9341505040E0F70895FC016150704062
:100BA00001900110D8F7809590958E0F9F1F0895A2
:100BB0000F931F93CF93DF93FB01238121FD03C08C
:100BC0008FEF9FEF2CC022FF16C0468157812481F2
:100BD00035814217530744F4A081B1819D012F5FF5
:100BE0003F4F318320838C93268137812F5F3F4F86
:100BF0003783268314C08B01EC01FB010084F1854F
:100C0000E02D0995892BE1F6D80116968D919C91DE
:100C10001797019617969C938E931697CE01DF91A6
:100C2000CF911F910F910895FA01AA27283051F111
:100C3000203181F1E8946F936E7F6E5F7F4F8F4F0D
:100C40009F4FAF4FB1E03ED0B4E03CD0670F781F6C
:100C5000891F9A1FA11D680F791F8A1F911DA11D51
:100C60006A0F711D811D911DA11D20D009F468948A
:100C70003F912AE0269F11243019305D3193DEF632
:100C8000CF010895462F4770405D4193B3E00FD0E8
:100C9000C9F7F6CF462F4F70405D4A3318F0495DD3
:100CA00031FD4052419302D0A9F7EACFB4E0A695B6
:100CB0009795879577956795BA95C9F700976105D8
:100CC000710508959B01AC010A2E0694579547952E
:100CD00037952795BA95C9F7620F731F841F951F23
:100CE000A01D08952F923F924F925F926F927F9234
:100CF0008F929F92AF92BF92CF92DF92EF92FF922C
:100D00000F931F93CF93DF93CDB7DEB7CA1BDB0BD7
:100D10000FB6F894DEBF0FBECDBF09942A8839887C
:100D200048885F846E847D848C849B84AA84B98483
:100D3000C884DF80EE80FD800C811B81AA81B9818F
:100D4000CE0FD11D0FB6F894DEBF0FBECDBFED01A3
:060D50000895F894FFCFA6
:100D56000000380320000174696D65202564202594
:100D6600642025642074656D7065722025642E25C7
:0E0D7600642068756D692025642E25640A00CE
:00000001FF
